:400000000080002011000000D5050000D505000008B5044B1A6803F53F5302331A6000F0F9FA00BFFA46004010B5054C237833B9044B13B10448AFF300800123237010BDD0
:400040007081FF1F00000000C43C0000084B10B51BB108490848AFF300800848036803B910BD074B002BFBD0BDE81040184700BF000000007481FF1FC43C0000C880FF1FB2
:400080000000000000000000D0B5002430E0204B186802F05DFE00221E4B02F0E9FF18A3D3E9002302F0BAFE06460F46204602F04FFE15A3D3E9002302F0B0FE0022164BA6
:4000C00002F0ACFE01F0B6FB0022144B02F0F4FC02460B463046394602F0A0FE0022104B02F09CFE03F05CF90E4B18550134E4B23F2CCCD940210B4800F078FED0BD00BFE9
:400100000000000000E06F40182D4454FB211940CC80FF1F00408F400000903F0000F03F0000E03FAC81FF1F08B5064A908845F6C05393FBF0F0D0800138012180B201F04E
:40014000E5FA08BDCC80FF1F10B584B0012000F063FD60B34B4B9B68002B02DDC83B494A9360484B1B68C82B04DDC83B454A1360012400E00024012000F070FF00210846C1
:4001800000F0CAFF404800F05BFF3E4B9B683F4A1021684603F064F90021012000F0BCFF684600F04DFF642001F048FA00E00024022000F031FD30B3324B9A68C8329A6048
:4001C0001B68B3F57A7F03DAC8332E4A13600124012000F043FF0021084600F09DFF2C4800F02EFF274B9B68284A1021684603F037F90021012000F08FFF684600F020FFAE
:40020000642001F01BFA002000F090FD4FF6FF7398422ED01F4B1B88984210D9194A928841F287318A420AD8164B64329A801B7B0F2B14D80133134A1373012316E098424A
:400240000FD2104B9B88642B0DD90E4A643B9380137B012B09D9013B1373012306E0012304E0002302E0002300E00123094A108000E000230BB1FFF757FF0CB1FFF704FF60
:4002800004B010BDCC80FF1FC83C0000D03C0000DC3C00008C81FF1F08B562B600F0B6FB00F0F2FB00F02AFF012000F0D7FEFFF7EBFE40210B4800F099FD00F0F9FD0A4B5A
:4002C000D8880138012180B201F020FA01F002FA00F040FA18B900F03BFC00F0F9FAFFF733FFF5E7AC81FF1FCC80FF1FFEE700BFF0B40022174611E050F82760F3B226F019
:40030000FF0608E001EB420511F812406D78A5550132013BDBB2002BF4D101371B2FEBD9F0BC7047144B1B78DBB203F00701134A11701B09013213708022114B1A700022F2
:4003400003F213731A70102203F508731A7020224B331A70092225331A7040F2011244331A80082214331A70012203331A704422A3F2E5231A707047CF0100496E5800405B
:400380005D51004008B50A46002103F060F808BD38B50122264B1A801823264A1370EF2102321180023213700222234B1A7008224FF040231A70032103F5007319701F4B48
:4003C0001B78DBB21E490B701E4B1A8041F25122023B1A80002419250CE01B4B1B7803F0010343EA440404F003044FF4F07001F0FBF9013D0DB1032CEFD115B90320FFF773
:4004000075FF124B4FF480721A8007221A7000220F490A704820023108701A700222033B1A700C4A137843F00303137038BD00BF80400040824000400043004008010049C4
:40044000A146004022420040254200400440004006400040A243004008B502F0EDFF08BD092808D8044B53F82020184490F8281013780B4313707047E43C0000092809D82F
:40048000054B53F82020184490F82810137823EA01031370704700BFE43C000038B572B6364A137843F00403137000240BE0344863001A19510001440A46098F506BFFF763
:4004C00061FF0134E4B2082CF1D92E494FF09040FFF70EFF4FF440722B4B1A8040F20332243B1A8004212948FFF74CFF04212848FFF748FF274A284B1A60284A137843F0AE
:40050000020313701032137843F002031370244C237843F040032370A2F58632513A137843F01003137008221E491F48FFF794FF08221E491E48FFF78FFF08221D491E4877
:40054000FFF78AFF08221D491D48FFF785FF1D4A137843F0080313701B4D61232B70FFF717FF81232B700122184B1A70FFF7DAFE0E2221461648FFF76FFF38BDE84600406E
:40058000E43C00007000004872580040007600400876004004040084D808014003500140A0430040680300480251004070030048125100407803004822510040800300489C
:4005C00052510040224300400048004004000840B043004008B502F003FF03680C2B00D1FEE7FEE708B5094B1A681044084BC31A802B02DC054B186005E002F0F1FE0C2321
:4006000003604FF0FF32104608BD00BFDC80FF1F3882FF1F08B5104E104D16E029686B68AC68002204E051F8040B43F8040B0432A242F8D1E868002203E0002143F8041B7A
:4006400004328242F9D11035013E002EE6D102F0CDFEFFF721FEFEE701000000E440000008B5114A114B1A60114A136843F40073136000230AE0032B03D80E4A52F82310A5
:4006800000E00D490D4A42F8231001332F2BF2D90B4B1A780B4B1A70084A0B4B1A60FFF7FDFE00F0FDFE08BD0004FA050CED00E014ED00E000000000D50500000080FF1F27
:4006C000BC760040C080FF1F08ED00E010B501F093F80446134A137843F02003137000F013FE00F037FD00F08DFD0F4A137843F010031370103A137843F01003137002F528
:40070000A6520532137843F001031370204601F077F80122054B1A60054A137843F08003137010BD99640040BB43004000E100E07A6400400130C0B2072808D0C20800F0F4
:40074000070101238B4002498A5C1342F2D07047E080FF1F024B187800F00100704700BFED81FF1F10B50B4B195C1A18147A03EB80031B6909221A700F2900D10721054ABB
:4007800002EB8102D26A137823431370FFF768FE10BD00BF503D000070B505460B4B1C5C03441E7AFFF76AFE0F2C00D10724074800EB8404E26A137823EA0603137000EBD5
:4007C0008500036908221A7070BD00BF503D000010B5002404E02046FFF7DEFF0134E4B2062CF8D910BD00BF10B50E4A137803F0FC0313700C4B1B781B020C4921F81030A9
:400800006D3A12781343DB4321F81030FFF7C4FF002000F013FD064A137843F00103137010BD00BF7A6400401D640040F081FF1F70580040024B18704008103318707047AB
:400840002864004070B50446094E331893F84C5093F8540000F0F2FC354495F85C20054B1A70054B1C442079FFF7E4FF70BD00BF503D00005C640040E080FF1F38B505460A
:40088000FFF7E0FF084C237843F001032370074A137803F0FE0313702846FFF763FF237843F00203237038BD7A6400407058004008B5054B00221A70044A107081221A705C
:4008C000FFF7DCFF08BD00BFED81FF1FEC81FF1F10B500220A4B1A700A4CFF2323702078FFF728FF20702378DBB2062B07D8044A137843F0010313702078FFF7BFFF10BD92
:40090000ED81FF1FEC81FF1F012805D1054A137803F0EF0313707047024A137843F01003137070477A64004038B5FFF751FF0220FFF7EAFF00F060FF2E4A137843F0030374
:4009400013700132137843F00303137000F058FF4FF43442284B1A804FF6FF7520331D8007243F331C7000F047FF244A137843F0030313700132137843F00303137000F046
:400980003FFFFF231E4A157020321370403A13702132137030321370103A1370012203F1E02381331A601749002000F067FE2146002000F077FE00F0A3FC2046FFF750FD4F
:4009C0000820FFF74DFD0920FFF74AFD0E4A137843F00403137000F0F7FB00F04FFC002000F062FC042000F06FFC002000F026FC38BD00BF9A6400402A6400409C6400404D
:400A00002C640040750D00007A64004008B5054B1B7823B9FFF788FF0122024B1A70FFF755FE08BD8E81FF1F0A4B1B5C0A4A32F810100A4A22F81010002209490A540949FC
:400A400021F8102023B15A1E0749C95C074B9954704700BF9C3D0000F081FF1F1082FF1F2082FF1F0082FF1FB03D00009081FF1F10B50446FFF71CFFFFF76CFE0028FBD1AF
:400A80002046FFF7D1FF10BD10B5002404E02046FFF7EEFF0134E4B2062CF8D910BD00BFF8B50446234B1A5C234B03EB42039E88224B33F81030224A32F810108B4203D3FA
:400AC0005D1AADB2012702E0CD1AADB2002787B9142D0ED91B4B1B5D042B06D92046FFF7A3FF0022174B1A5517E00133154A135513E0B54202D9132D0FD877B91248025D9D
:400B000042EA012213445B1AC3F30F210C4A22F81410035500220B4B1A55B54204D91FB10A4B23F81450F8BD0022084B23F81420F8BD00BF9C3D0000B03D0000F081FF1F27
:400B40001082FF1F2C82FF1F2082FF1F0082FF1F10B500240DE0E20804F0070101238B4005498A5C134202D02046FFF799FF0134E4B2062CEFD910BDE080FF1FF0B5C4081E
:400B800000F0070201239340DBB21E4A125C1E4D05EB4206B789B18AAE5C22B901251B4A9570022201E0013AD2B2194D2D5D2B420DD0DFF860E03EF81000791A88421BDAA2
:400BC00025EA030512490D5510498E5414E0DFF844E03EF81000394488420BDD11460B48825C012A02D81D4309480555013A0748425401E005498E54054A105D184000D0D5
:400C00000120F0BD9C3D0000B03D00009081FF1F2882FF1F0082FF1F70B5094B1844047F90F820502544EDB200262046FFF7A6FF00B101260134E4B2A542F6D8304670BD0F
:400C4000B03D000070B40A4D05EB40050026FF20334609E035F81340944203D9A64201D2264618460133DBB28B42F3D370BC70470082FF1FF0B5BDF814502A4C04EB41013D
:400C8000044610B1461EF6B200E00026601CC0B231F814E0244FA7F806E02CB90026BE8031F81010398110E0013A944206D131F816101D4A91800021118106E031F81660F1
:400CC000194A968031F810101181174A9288AA4203D9521B14498A8002E00021124A9180114AD188491B89B2D1801289954203D2551B0D4A158102E000200B4A10810A4A95
:400D000010899588421B29440844120292FBF0F000EB04201BB200FB03F000F5FE40C0F30740F0BD0082FF1F9081FF1F70B582B004460F4B1A18157F92F8206003EB4003F7
:400D40009A8931462846FFF77DFFFF280CD0084B03EB4404A38800934FF4C85332462946FFF788FF80B201E04FF6FF7002B070BDB03D000010B5114B1878FFF735FD104B26
:400D80001B7813F0800F05D00D4A137803F0FE03137010BD094C2078FFF7CCFC20702378DBB2062B03D82078FFF768FD10BD044A137803F0FE03137010BD00BFEC81FF1F7D
:400DC000ED81FF1F10B500F0E9FA00F041FB064C0121207800F07EFB0121607800F07AFB002000F0F7FA10BD9A81FF1F70B505460E464FF48043020C0121084600F092FA04
:400E0000094C2070A07801230246314600F0F2FB45F68232A9B2A07800F000FCA178207800F0A0FB70BD00BF9A81FF1F70B505460E464FF48043020C0121084600F090FA84
:400E4000094C6070E07801230246314600F0D2FB45F68232A9B2E07800F0E0FBE178607800F080FB70BD00BF9A81FF1F10B500F0D9FA022000F0A0FA002000F0C3FA00F036
:400E800009FB00F09DFB084CA07000F099FBE070064C64212046FFF7A9FF322104F16400FFF7C4FF10BD00BF9A81FF1FD83D000008B5054B1B7923B9FFF7D8FF0122024B9A
:400EC0001A71FFF77FFF08BD9A81FF1F10B50B4C237803F09F032370237803F0F00323702378184340F010002070012000F0BCFB237803F0EF03237010BD00BF2051004024
:400F000038B505460E4C237843F020032370237803F0BF032370002000F0A6FB237803F0F003237023781D4345F010052570012000F09AFB237803F0EF03237038BD00BFAC
:400F40002051004070B5354B1A7802F08002D2B21A7033490A7802F0F00242F00F020A7001310A7802F0F0020A7001310A7802F0F0020A701A7802F0DF021A701A7842F091
:400F800040021A704FF4CA76002000F06DFB234D2B7843F010032B70012000F065FB214B1C78E4B22B7803F0EF032B70002000F05BFB04F00804E4B22B7843F010032B70CC
:400FC000012000F051FB2B7803F0EF032B7014B90A2000F049FB013E0CB1002ED4D10F4A137803F0BF031370137803F08003DBB213700232137803F0F00313700132137864
:4010000003F0F00343F00F0313700132137803F0F00343F00F03137070BD00BF20510040225100402151004010B50446FFF78AFF2009FFF765FF04F00F00FFF761FF10BD5D
:4010400038B505460078012404E0FFF7EDFF285D0134E4B20028F8D138BD00BF10B50446FFF770FF2009FFF731FF04F00F00FFF72DFF10BD08B5282000F0E0FA0320FFF743
:4010800025FF052000F0DAFA0320FFF71FFF0F2000F0D4FA0320FFF719FF012000F0CEFA0220FFF713FF052000F0C8FA0620FFF7D5FF0E20FFF7D2FF2C20FFF7CFFF0820D7
:4010C000FFF7CCFF0120FFF7C9FF0C20FFF7C6FF0320FFF7C3FF052000F0B0FA014800F093FB08BD703E000008B50C20FFF7B6FF0122014B1A7008BD9F81FF1F08B5054BF8
:401100005B7823B9FFF7B6FF0122024B5A70FFF7EBFF08BD9F81FF1F08B5032819D8DFE800F002070D1381F08000FFF797FF08BDA1F14000C0B2FFF791FF08BDA1F16C00B0
:40114000C0B2FFF78BFF08BDA1F12C00C0B2FFF785FF08BD054A137843F0080313701032137843F008031370704700BFA74300400F490B7803F0FC0200F0030313430B70ED
:4011800001280AD10B4B1B78DBB20B4A13700B4B1B78DBB2013213707047094B1B78DBB2054A1370074B1B78DBB20132137070474358004013010049364600401701004980
:4011C000B3010049BB01004908B50020FFF7D0FF0B4B1A7842F020021A701A7802F0FB021A701A7842F008021A7003F527731A7802F0E7021A701A7842F010021A7008BD74
:4012000043580040054A137843F0010313701032137843F001031370704700BFA8430040054B1A7802F0FD021A701A7800F0020010431870704700BF20580040014B187059
:40124000704700BF805B0040094B1B7803F00C035B08084A127812F0040F00D0013303F1924393F82031DBB2034A1370704700BF20580040215800400846004008B5142232
:40128000084B1A700133002018701A7842F004021A701A7842F002021A70FFF7C1FFFFF7D3FF08BD2058004008B5064B1A7802F0FB021A701A7800F0040010431870FFF764
:4012C000C3FF08BD2158004008B5064B1A7802F0F3021A701A7800F00C0010431870FFF7B3FF08BD2058004010B5002404E02046FFF7C4F80134E4B2092CF8D910BD00BFCD
:4013000008B5FFF7F1FF08BD054A137843F0010313701032137843F001031370704700BFA2430040F0B583B016461F460B4D00242C700194009423460A460146204600F05F
:401340001DF93A463146287800F0F2F80221287800F0DCF8287803B0F0BD00BFEB80FF1FF0B583B016461F460B4C012525700023019300930A460146284600F0FFF83A46B6
:401380003146207800F0D4F80221207800F0BEF8207803B0F0BD00BFEC80FF1F054A137843F0040313701032137843F004031370704700BFA8430040054B1A7802F0FD022B
:4013C0001A701A7800F0020010431870704700BF28580040014B1870704700BF825B0040064B1B78C3F3810303F19243063393F82831DBB2024A1370704700BF28580040D1
:401400000A46004008B5064B1A7802F0F3021A701A7800F00C0010431870FFF7E1FF08BD2858004008B50020074B187001331870064A137843F008031370FFF7E3FF02203E
:40144000FFF7BAFF08BD00BF28580040975A0040084A137843F060031370A2F5A652133A137843F0040313701032137843F004031370704777580040054B1A7802F0FC020C
:401480001A701A7800F0030010431870704700BF5C58004008B50220FFF7EEFF08BD00BF0B4A7F2313708021517007E0DA0002F1804202F5F042013BDBB21370002BF5D1DA
:4014C000DB0003F1804303F5F04300221A707047F080FF1F172815D831B103010A495A5C42F020025A5405E0030107495A5C02F0DF025A540001044A835C43F00103835475
:4015000000207047012070471070004017280BD80001064A835C03F0F103490001F00E011943815400207047012070471070004041F6FF73994201D14FF4005141F6FF7387
:401540009A4201D14FF40052172808D8C00000F1804000F5EC408180C280002070470120704700BF172805D8034B03EB0010417200207047012070471070004017281BD80A
:4015800010B4C00000F1804404F5EC44D201D2B201F07F01114321709DF804201201D2B203F00F03134363709DF8083003F00F03A3700020E07001E00120704710BC70470D
:4015C00010B500F019F90A4B5B78182B0BD9084A1478013B5370E30003F1804303F5F0431B78137000E0FF2400F00AF9204610BDF080FF1F10F0800F0CD111F4704F0BD15A
:40160000C00000F1804000F5F04001808270C37000207047012070470120704710F0800F08D1C00000F1804000F5F0408180C280002070470120704701BE704710B5044672
:4016400005E0084B186800F0CFF8A4F50044B4F5004FF6D8034B586800FB04F000F0C4F810BD00BFF880FF1F08B5034B1B7A00FB03F000F0B9F808BDF880FF1F70B5044694
:401680000E46074B1D681F2802D90020FFF7D4FF04F01F04103455F8240045F8246070BD08ED00E038B504460D46072902D90020FFF7C2FF1F2C02D90020FFF7BDFF04F00D
:4016C0001F0000F1604000F564406D01EDB2057038BD00BF054A137843F0020313701032137843F002031370704700BFA2430040014B188880B2704784400040024B1878FD
:4017000000F00700704700BF8640004070B504460D46FFF7F3FF0646FFF7EAFFA04257D02C4B1B7803F00203DAB296B900B184B938B9294B1C80294A137803F0BF03137056
:4017400070BD264A137843F040031370224B1C8070BD22B3002322490B7002260F310E7004310B700C390B7803F07F030B701B4B1B7813F0080F00D08CB91A4B1880072199
:40178000013B1970164B1B7813F0010FFAD111490B7803F0FD030B700021114B19700D4B1B7813F0020F0DD00E4B1C800DB1032200E001220A4B1A70094B1B7813F0010FB1
:4017C000FAD170BD044B1C8002490B7813430B7070BD00BFA2430040844000408640004001400040024000400230800803D000BF01380046FCD17047EFF3108072B67047A9
:4018000080F31088704700BF38B50546FFF79AFB4020FFF723FC002404E0285DFFF704FC0134E4B23F2CF8D9FFF78CFB8020FFF715FC38BD30B5214A21F00043934287B09C
:401840001BDD1F4A934205DD02460B4601F032F907B030BD02AA00F037F800F0030001281ED0022811D0DDE9042300B3DDE9020100F042FA01F10041EAE7002300930022A6
:40188000002300F055FF07B030BD01230093DDE90201DDE9042300F04BFF01F10041D7E7DDE90423DDE9020100F026FAD0E70124DDE90201009400F03BFFC9E7FB21E93F68
:4018C000FFFFEF7F000000002DE9F04F944C21F00047A7428FB040F381801446914A0E46974226DC84A3D3E90023002940F3A08101F0E0F88C4B80469F42894600F08380A3
:401900007FA3D3E9002301F0D5F802460B464046C4E90023494601F0CDF879A3D3E9002301F0C8F80125C4E9020128460FB0BDE8F08F7E4A974240F383807D4A974258DC36
:401940003D15A5F21645A7EB05518B46824601F0FFFC01F0FDF98046894642464B4650465946CDE9088901F0A5F80022714B01F055FA8B46824601F0EBFC01F0E9F98046EF
:40198000894642464B4650465946CDE90A8901F091F80022674B01F041FA00220023CDE90C0101F0A3FC002800F06A81002340464946002201F09AFC002814BF0123022387
:4019C0005D480221019000912A46214608A800F0B7FA002EC0F24A81054606E0C2E9000100250024C2E90245002528460FB0BDE8F08F02460B4601F05DF80025C4E90201E8
:401A0000C4E90001F1E740A3D3E9002301F052F83FA3D3E9002306460F4601F04BF802460B463046C4E90023394601F043F838A3D3E9002301F03EF80125C4E90201D4E791
:401A400000F02CFF34A3D3E900238046894601F0E5F90022394B01F02FF801F079FC054601F076F924A3D3E90023CDE9040101F0D5F902460B464046494601F01BF820A3CD
:401A8000D3E9002382468B46DDE9040101F0C6F91F2DCDE9020155DC294B6A1E53F822309F424FD002460B465046594601F002F802460B4681468846C4E900234A46434694
:401AC0005046594600F0F6FFDDE9022300F0F2FF02460B46002EC4E9022386DA4A4608F1004301F1004184E80C00E160A0606D427BE700BFAFF3008000004054FB21F93F75
:401B00003163621A61B4D03D0000601A61B4D03D7370032E8A19A33B83C8C96D305FE43FFB21E93F7BD90240FB21F93FFB213941FFFFEF7F00007041303F00000000E03FA0
:401B4000B03E0000DDE902235046594600F0B2FF3F15C1F30A53FB1A102B81468846C4E90001ABDD58A3D3E90023DDE9040101F055F98046894602460B465046594600F0FF
:401B800099FFCDE9060102460B465046594600F091FF42464B4600F08DFF4DA3D3E9002380468946DDE9040101F038F942464B4600F080FF02460B46CDE90201DDE90601F5
:401BC00000F078FF0B4602468846C1F30A517F1A312F8146C4E9002372DD3FA3D3E90023DDE9040101F01AF98046894602460B46DDE9060100F05EFF02460B4682468B461F
:401C0000DDE9060100F056FF42464B4600F052FF33A3D3E9002380468946DDE9040101F0FDF842464B4600F045FFCDE9020139E700F042FF2E4B80469F42894622D02AA338
:401C4000D3E9002300F038FF02460B464046C4E90023494600F02EFF23A3D3E9002300F02BFF4FF0FF35C4E90201BEE66268E36802F1004203F1004345426260E360B4E696
:401C800003239DE610A3D3E9002300F015FF10A3D3E9002306460F4600F00EFF02460B463046C4E90023394600F004FF08A3D3E9002300F001FF4FF0FF35C4E9020194E64D
:401CC000DDE906ABFAE600BF0000601A61B4D03D7370032E8A19A33B0000002E8A19A33BC14920259A837B393163621A61B4D03DFB21F93F000000002DE9F04F21F000469C
:401D0000B6F1795F85B00C4692469B4605466BDA01F01EFB002800F0E7802A4623462846214601F07BF874A3D3E900238046894601F074F872A3D3E9002300F0BDFE4246AA
:401D40004B4601F06BF870A3D3E9002300F0B2FE42464B4601F062F86DA3D3E9002300F0ABFE42464B4601F059F86BA3D3E9002300F0A0FE42464B4601F050F868A3D3E911
:401D8000002300F099FE42464B4601F047F8CDE900010022644B4046494601F03FF8DDE9002306460F464046494601F037F85246804689465B462846214601F02FF80246A9
:401DC0000B464046494600F075FE02460B463046394600F06FFE02460B460020534900F069FE05B0BDE8F08F02460B4601F016F841A3D3E900238046894601F00FF840A3DF
:401E0000D3E9002300F058FE42464B4601F006F83DA3D3E9002300F04DFE42464B4600F0FDFF3BA3D3E9002300F046FE42464B4600F0F4FF38A3D3E9002300F03BFE42461E
:401E40004B4600F0EBFF36A3D3E9002300F034FE4B46424600F0E2FF354BCDE900019E4297DD344B00229E4238DCA6F5001300202E4916461F4600F01DFECDE90201002227
:401E8000294B4046494600F0C9FF32463B4600F011FEDDE9002306460F464046494600F0BDFF5246804689465B462846214600F0B5FF02460B464046494600F0FBFD024679
:401EC0000B463046394600F0F5FD02460B46DDE9020100F0EFFD05B0BDE8F08F164B0026CDE90223154FCAE71049002005B0BDE8F08F00BFAFF30080D43888BEE9FAA8BD5F
:401F0000C4B1B4BD9EEE213EAD529C804F7E923E9015CB19A001FA3E7751C1166CC1563F4C5555555555A53F0000E03F0000F03F3233D33F0000E93F0000E73F0000D23F58
:401F40002DE9F04F794CADF51D7D1F460B93D31E84FB0354DB17C3EBA403A69E744C23EAE37554F826406B1C26460994A3EB83037C1E0D95029402EBC3032D1B341904908D
:401F80000A91089316D42C44013422AEA79F08E057F8250000F0DCFE0135A542E6E9020108D0002DF4DA013500200021A542E6E90201F6D1099B002B2FDB099B74AADDF8F7
:401FC000089002EBC30B0DF5E47A029B002BC0F295810B9B0026C3EB090824AB03EBC808049B0027A3F1080524AB03EBC904F5E9022374E8020100F011FF02460B46304624
:40200000394600F059FD444506460F46EFD1EAE90267DA4509F10109D7D1099B10A91D4603F18043023B9B001A1D0A440B440F920E939CAB03EBC503002D53E928672BDD88
:402040009CAB03EBC504A83C0DF13C0A0DF5E47B0022384B3046394600F0E0FE01F078F900F076FE0022344B8046894600F0D6FE02460B463046394600F01CFD01F068F9C8
:4020800074E802234AF8040F4946404600F014FD5C4506460F46DBD1089C30463946224600F08AFC00224FF07F5306460F4600F0B5FE00F0F9FB0022204B00F0AFFE024602
:4020C0000B463046394600F0F5FC0F46064601F03FF9814600F03CFE02460B463046394600F0E8FC002C06460F4640F3EE80681E10AB53F82030C4F1180243FA02F101FA58
:4021000002F29B1AC4F1170810AA42F82030894443FA08F8B8F1000F3DDD002D09F1010940F3D382002214460FA911E0ABAAAA2A384000000000703E0000704100002040C4
:40214000C3F180700BB108600124013295420DDD51F8043F002CF3D0C3F1FF13013203F57F4395420B604FF00104F1DC089B002B0DDD012B00F0B180022B08D16A1E10ABAF
:4021800053F8223010A9C3F3150341F82230B8F1020F00F08180002200233046394601F0A5F8002800F05B82099B05F1FF3B5B4510DC05F1804310AA013B0F9802EB8303DF
:4021C000002253F80419834242EA0102F9D1002A40F0B180099B10AA013B52F82330002B40F071820E9A012352F8041901330029FAD0E9186A1C8A420C914BDC0D990B98CD
:402200005118DB0001F180410593A79B05440139E80003EB810A24ABD20003EB000B74AB13440193A2F10803069007934FF000095AF8040F00F08CFD029BEBE80201002BB3
:402240004FF000064FF000071BDB069B03EB0904079B09EB030824AB1C449844049BA3F10805F5E9022374E8020100F0D7FD02460B463046394600F01FFC444506460F466C
:40228000EFD1019B09F10809E3E802670193059B9945CDD10C9DCCE632463B460020B04900F008FC06460F46002C3FF474AF089A0020AB4900F080FB02460B4630463946A0
:4022C00000F0F8FB06460F4665E710D16B1E10AA52F823304FEAE3581CE76A1E10AB53F8223010A9C3F3160341F822304FE700229C4B01F019F858B980464CE7002600274B
:40230000EAE90267DA4509F101097FF45EAE84E6002D09F10109C8BF4FF002083FF702AF32463B4600208E4900F0C4FB4FF0020806460F462FE7089A10AB53F82B30183A79
:40234000CDF81490CDF8048008926BB90BF18043013B10A901EB830353F804190BF1FF3B183A0029F8D00892089A00207C4900F023FBBBF1000F04460D46C0F2B6814FEA3D
:40238000CB030DF5E87810AA02EB8B0608EB03090493043609F1080756F8040D00F0D8FC22462B4600F03AFD002267E902016E4B2046294600F032FDB84504460D46EBD141
:4023C0004B46CDF818B09B460DF5987ACDF808A0DDF824A04FF00009BAF1000FC0F226815DA3D3E90023DFF884815D4600260027002403E0A14510DBF8E90223F5E8020100
:4024000000F00CFD02460B463046394600F054FB0134A24506460F46ECDA029BABF1080B03EBC903C3E9006772AB5B4509F10109D2D1A69BDDF818B0DDF808A0032B00F25B
:402440008380DFE813F0D100950095000400BBF1000F40F35481049BCDF808B053449846D3E90067D34658E9029A32463B464846514600F021FB04460D4602460B46484635
:40248000514600F017FB32463B4600F015FBC8E9000168E90245C34526462F46E3D1DA46DDF808B0BBF1010F40F32981049B0DF59C7B53449846D3E90067994659E90234B6
:4024C0003046CDE902341A463946234600F0F4FA04460D4602460B46DDE9020100F0EAFA32463B4600F0E8FAC9E9000169E90245CB4526462F46E1D100231D4608F1080838
:4025000050AC184678E90223294600F0D5FA444503460D46F5D1019A002A00F0D880DAF80440DAF80C200A9FDAF80010DAF8080005F1004504F1004402F100427D613B61F9
:402540007C60FA603960B860059B03F007000DF51D7DBDE8F08F00BF00000040FB21F93F0000F03F0000E03F0000703E4840000000242146049D0835554475E90223204658
:4025800000F09AFA55450446F7D1019B002B50D00A9F01F100450B46DAE9000187E83000224600F087FABBF1000F03460D460DDD01241846FAE90223294600F07DFA0134C0
:4025C000A34503460D46F4DA019A0AB105F10045184629460A9BC3E90201059B03F007000DF51D7DBDE8F08F00231C46049A0832924418467AE90223214600F05DFA0BF1BA
:40260000FF3BBBF1FF3F03460C46F2D1019A0AB104F10044184621460A9BC3E90001059B03F007000DF51D7DBDE8F08F00260027F3E626460F4622460A9C0B46DAE900010E
:40264000C4E9006700F036FABBF1000F03460D46AEDC184629460A9BC3E90201BDE7089B30465A423946CDF81490CDF8048000F0A3F900222C4B06460F4600F055FE002869
:4026800040D00022294B3046394600F0C7FB00F05FFE044600F05CFB0022234B00F0BEFB0B4602463946304600F004FA00F050FE089B05F1010B1833089310AB43F8250056
:4026C00043F82B4050E6012393E500244EE51846DAE90067DAE9022329460A9DC5E90067C5E90401C5E902232EE7A69B032B3FF62BAFDFE803F0151010020DF5987A00232F
:402700001D4608E73046394600F022FE10ABAB4643F8250028E6002421460DF5987A34E700231C4672E700BF000070410000703E2DE9F04F21F00046B6F1795F85B00C46C0
:4027400090469946054604DA00F002FE002800F085802A4623462846214600F05FFB06460F4602460B462846214600F057FB3EA3D3E9002382468B463046394600F04EFB9E
:402780003BA3D3E9002300F095F932463B4600F045FB39A3D3E9002300F08EF932463B4600F03CFB36A3D3E9002300F083F932463B4600F033FB34A3D3E9002300F07CF90D
:4027C0000E9BCDE900019BB30022334B4046494600F024FBDDE90023CDE902015046594600F01CFB02460B46DDE9020100F062F932463B4600F012FB42464B4600F05AF98A
:4028000023A3D3E9002306460F465046594600F005FB02460B463046394600F04DF902460B462846214600F045F905B0BDE8F08F02460B463046394600F0F0FA14A3D3E919
:40284000002300F037F952465B4600F0E7FA2A46234600F031F905B0BDE8F08F2846214605B0BDE8F08F00BF7CD5CF5A3AD9E53DEB9C2B8AE6E55A3E7DFEB157E31DC73EFC
:40288000D561C119A0012A3FA6F810111111813F495555555555C53F0000E03F21F00041704700BF00000000C1F30A522DE9F843A2F2FF36132E0B4604460D46884607460C
:4028C0001CDC002E3FDB3A4A864642FA06F901EA0902024317D034A3D3E9002300F0ECF80022002300F02AFD20B1002D40DB28EA0905002738462946BDE8F883332E06DD54
:40290000B6F5806F2FD020461946BDE8F883A2F213424FF0FF3929FA02F910EA090FF2D021A3D3E9002300F0C7F80022002300F005FD0028DED0002D20DB454627EA090794
:4029400038462946D8E718A3D3E9002300F0B4F80022002300F0F2FC0028CBD0002D18DB00273D46C6E702460B4600F0A5F8CCE74FF4801343FA06F6B044B8E7142E10D07B
:402980000123C6F1340603FA06F6371928BF9844D3E725F00042074B224318BF1D460027A8E705F10108C8E79C7500883CE4377EFFFF0F000000F0BFF8B5C1F30A5604465B
:4029C0000D460B46174606BB21F00043034325D000222F4B00F022FA2E4A044697420D460B462ADBC1F30A56363E40F2FE723E44964228DC002E12DD23F0FF4323F4E003A6
:402A000043EA065520462946F8BD40F2FF729642EBD102460B4600F04FF8F8BDF8BD16F1350F1DDA4CF250339F420CDC14A1D1E9000122462B4600F031F811A3D3E9002352
:402A400000F0ECF9F8BD22460FA1D1E900012B4600F024F80CA3D3E9002300F0DFF9F8BD23F0FF4323F4E003363643EA0655204629460022084B00F0D1F9F8BDAFF3008053
:402A800059F3F8C21F6EA5019C7500883CE4377E00005043B03CFFFF0000903C03F0004321F0004242EA0301704700BF81F0004102E000BF83F0004330B54FEA41044FEA52
:402AC000430594EA050F08BF90EA020F1FBF54EA000C55EA020C7FEA645C7FEA655C00F0E2804FEA5454D4EB5555B8BF6D420CDD2C4480EA020281EA030382EA000083EA0F
:402B0000010180EA020281EA0303362D88BF30BD11F0004F4FEA01314FF4801C4CEA113102D0404261EB410113F0004F4FEA03334CEA133302D0524263EB430394EA050F60
:402B400000F0A780A4F10104D5F1200E0DDB02FA0EFC22FA05F2801841F1000103FA0EF2801843FA05F359410EE0A5F120050EF1200E012A03FA0EFC28BF4CF0020C43FA0A
:402B800005F3C01851EBE37101F0004507D54FF0000EDCF1000C7EEB00006EEB0101B1F5801F1BD3B1F5001F0CD349085FEA30004FEA3C0C04F101044FEA445212F5800F38
:402BC00080F09A80BCF1004F08BF5FEA500C50F1000041EB045141EA050130BD5FEA4C0C404141EB010111F4801FA4F10104E9D191F0000F04BF01460020B1FA81F308BF1B
:402C00002033A3F10B03B3F120020CDA0C3208DD02F1140CC2F10C0201FA0CF021FA02F10CE002F11402D8BFC2F1200C01FA02F120FA0CFCDCBF41EA0C019040E41AA2BF7A
:402C400001EB0451294330BD6FEA04041F3C1CDA0C340EDC04F11404C4F1200220FA04F001FA02F340EA030021FA04F345EA030130BDC4F10C04C4F1200220FA02F001FAFA
:402C800004F340EA0300294630BD21FA04F0294630BD94F0000F83F4801306BF81F480110134013D4EE77FEA645C18BF7FEA655C29D094EA050F08BF90EA020F05D054EAFF
:402CC000000C04BF1946104630BD91EA030F1EBF0021002030BD5FEA545C05D14000494128BF41F0004130BD14F580043CBF01F5801130BD01F0004545F0FE4141F47001A0
:402D00004FF0000030BD7FEA645C1ABF194610467FEA655C1CBF0B46024650EA013406BF52EA033591EA030F41F4002130BD00BF90F0000F04BF0021704730B54FF48064A5
:402D400004F132044FF000054FF0000150E700BF90F0000F04BF0021704730B54FF4806404F1320410F0004548BF40424FF000013EE700BF42004FEAE2014FEA31014FEA59
:402D800002701FBF12F07F4393F07F4F81F06051704792F0000F14BF93F07F4F704730B54FF4607401F0004521F0004120E700BF50EA010208BF704730B54FF000050AE051
:402DC00050EA010208BF704730B511F0004502D5404261EB41014FF4806404F132045FEA915C3FF4DCAE4FF003025FEADC0C18BF03325FEADC0C18BF033202EBDC02C2F185
:402E0000200300FA03FC20FA02F001FA03FE40EA0E0021FA02F11444C1E600BF70B54FF0FF0C4CF4E06C1CEA11541DBF1CEA135594EA0C0F95EA0C0F00F0DEF82C4481EAE6
:402E4000030621EA4C5123EA4C5350EA013518BF52EA033541F4801143F4801338D0A0FB02CE4FF00005E1FB02E506F00042E0FB03E54FF00006E1FB03569CF0000F18BF49
:402E80004EF0010EA4F1FF04B6F5007F64F5407404D25FEA4E0E6D4146EB060642EAC62141EA55514FEAC52040EA5E504FEACE2EB4F1FD0C88BFBCF5E06F1ED8BEF1004F98
:402EC00008BF5FEA500E50F1000041EB045170BD06F0004646EA010140EA020081EA0301B4EB5C04C2BFD4EB0C0541EA045170BD41F480114FF0000E013C00F3AB8014F1FC
:402F0000360FDEBF002001F0004170BDC4F10004203C35DA0C341BDC04F11404C4F1200500FA05F320FA04F001FA05F240EA020001F0004221F0004110EBD37021FA04F6F8
:402F400042EB06015EEA430E08BF20EAD37070BDC4F10C04C4F1200500FA04F320FA05F001FA04F240EA020001F0004110EBD37041F100015EEA430E08BF20EAD37070BD0A
:402F8000C4F1200500FA05F24EEA020E20FA04F301FA05F243EA020321FA04F001F0004121FA04F220EA020000EBD3705EEA430E08BF20EAD37070BD94F0000F0FD101F0FF
:402FC0000046400041EB010111F4801F08BF013CF7D041EA060195F0000F18BF704703F00046520043EB030313F4801F08BF013DF7D043EA0603704794EA0C0F0CEA135545
:4030000018BF95EA0C0F0CD050EA410618BF52EA4306D1D181EA030101F000414FF0000070BD50EA410606BF1046194652EA430619D094EA0C0F02D150EA013613D195EA0E
:403040000C0F05D152EA03361CBF104619460AD181EA030101F0004141F0FE4141F470014FF0000070BD41F0FE4141F4780170BD70B54FF0FF0C4CF4E06C1CEA11541DBFCF
:403080001CEA135594EA0C0F95EA0C0F00F0A7F8A4EB050481EA030E52EA03354FEA013100F088804FEA03334FF0805545EA131343EA12634FEA022245EA111545EA106525
:4030C0004FEA00260EF000419D4208BF964244F1FD0404F5407402D25B084FEA3202B61A65EB03055B084FEA32024FF480104FF4002CB6EB020E75EB030E22BFB61A754665
:4031000040EA0C005B084FEA3202B6EB020E75EB030E22BFB61A754640EA5C005B084FEA3202B6EB020E75EB030E22BFB61A754640EA9C005B084FEA3202B6EB020E75EB70
:40314000030E22BFB61A754640EADC0055EA060E18D04FEA051545EA16754FEA06164FEAC30343EA52734FEAC2025FEA1C1CC0D111F4801F0BD141EA00014FF000004FF005
:40318000004CB6E711F4801F04BF01430020B4F1FD0C88BFBCF5E06F3FF6AFAEB5EB030C04BFB6EB020C5FEA500C50F1000041EB045170BD0EF0004E4EEA113114EB5C04FA
:4031C000C2BFD4EB0C0541EA045170BD41F480114FF0000E013C90E645EA060E8DE60CEA135594EA0C0F08BF95EA0C0F3FF43BAF94EA0C0F0AD150EA01347FF434AF95EA28
:403200000C0F7FF425AF104619462CE795EA0C0F06D152EA03353FF4FDAE1046194622E750EA410618BF52EA43067FF4C5AE50EA41047FF40DAF52EA43057FF4EBAE12E7E9
:403240004FF0FF3C06E000BF4FF0010C02E000BF4FF0010C4DF804CD4FEA410C7FEA6C5C4FEA430C18BF7FEA6C5C1BD001B050EA410C0CBF52EA430C91EA030F02BF90EA58
:40328000020F0020704710F1000F91EA030F58BF994208BF90422CBFD8176FEAE37040F0010070474FEA410C7FEA6C5C02D150EA013C07D14FEA430C7FEA6C5CD6D152EA1B
:4032C000033CD3D05DF8040B704700BF8446104662468C461946634600E000BF01B5FFF7B7FF002848BF10F1000F01BD4DF808EDFFF7F4FF0CBF012000205DF808FB00BF2C
:403300004DF808EDFFF7EAFF34BF012000205DF808FB00BF4DF808EDFFF7E0FF94BF012000205DF808FB00BF4DF808EDFFF7CEFF94BF012000205DF808FB00BF4DF808ED8D
:40334000FFF7C4FF34BF012000205DF808FB00BF4FEA410212F5001215D211D56FF47873B3EB625212D94FEAC12343F0004343EA505311F0004F23FA02F018BF404270478A
:403380004FF00000704750EA013005D111F0004008BF6FF0004070474FF00000704700BF4A0011D212F5001211D20DD56FF47873B3EB62520ED44FEAC12343F0004343EA76
:4033C000505323FA02F070474FF00000704750EA013002D14FF0FF3070474FF000007047014B1868704700BF6881FF1F0E4B70B51E460E4C0025E41AA410A54204D056F8B0
:40340000253098470135F8E700F05AFE084B094C1E46E41AA4100025A54204D056F8253098470135F8E770BDCC400000CC400000CC400000D440000010B5431E0A4491421A
:4034400004D011F8014B03F8014FF8E710BD03460244934202D003F8011BFAE7704700000CB430B5164B0C1E9DB01D6804DA8B232B604FF0FF301EE04FF40273ADF8143021
:403480000CBF234604F1FF33049307934FF6FF7302900690ADF81630209A21AB02A92846019300F069F8431CBCBF8B232B6014B1029B00221A701DB0BDE8304002B07047C6
:4034C0006881FF1F2DE9F0478E6882469E420C46914698463ED88A8912F4906F3AD02568096902236F1A656905EB450595FBF3F57B1C43449D4238BF1D4653050FD529466C
:4035000000F040FB064698B13A462169FFF794FFA38923F4906343F08003A38113E02A4600F08EFB064670B92169504600F0DEFA0C23CAF80030A3894FF0FF3043F04003BE
:40354000A381BDE8F08726613E44266046466561ED1BA560464528BF464649463246206800F0A8FAA36800209B1BA36023681E442660BDE8F08700002DE9F04F9DB0039353
:403580008B8980461C060D4616460DD50B695BB9402100F0F7FA2860286118B90C23C8F80030CDE040236B610023099320238DF82930DFF89CB130238DF82A3037463C46A2
:4035C00014F8013B1BB9B7EB060910D003E0252BF9D02746F3E74B46324629464046FFF771FF013000F0A780099B4B4409933B78002B00F0A08000234FF0FF3204930793AE
:40360000059206938DF853301A930126052221784E4800F041FA671C049B38B14B4A3C46801A06FA00F018430490EFE7D90644BF20228DF853201A0744BF2B228DF8532007
:4036400022782A2A03D0079A00210A200BE0039A111D12680391002A10DA524243F00200079204900BE027463B780134303B092B03D800FB02320121F5E701B107923B78EA
:403680002E2B1ED17B782A2B0AD1039B02371A1D1B680392002BB8BF4FF0FF33059310E0002319460593781C0A2407463A780130303A092A03D804FB01210123F5E703B185
:4036C000059103223978224800F0E6F940B14023CBEB000003FA00F0049B013718430490397806221B487E1C8DF8281000F0D4F988B1194B33B9039B073323F0070308335F
:40370000039314E003AB00932A46144B04A94046AFF3008007E003AB00932A460F4B04A9404600F093F8B0F1FF3F824603D0099B5344099342E7AB895B0601D4099801E094
:403740004FF0FF301DB0BDE8F08F00BF8A400000904000009440000000000000C53400002DE9F04791461F460A698B6806469342B8BF1346C9F8003091F843200C46DDF8E0
:40378000208012B10133C9F800302368990642BFD9F800300233C9F80030256815F0060510D104F1190A07E00123524639463046C04701301AD00135E368D9F800209B1AB8
:4037C0009D42F1DB94F843302268003318BF012392060FD5E118302081F843005A1C94F845102244023382F8431003E04FF0FF30BDE8F08704F1430239463046C047013053
:40380000F4D02268D9F80050E36802F00602042A08BF5D1B2269A3680CBF25EAE57500259342C4BF9B1AED184FF000091A344D4509D00123224639463046C0470130D5D007
:4038400009F10109F3E70020BDE8F0872DE9F04317460A7E85B06E2A984606460C460C9B01F1430E00F0AE8011D8632A22D009D8002A00F0BB80582A40F0CA8081F8452037
:40388000834955E0642A1ED0692A1CD0C0E0732A00F0B08009D86F2A2ED0702A40F0B8800A6842F020020A603EE0752A24D0782A3AD0ADE01A6801F14205111D196013683E
:4038C00084F84230A8E021681A6811F0800F02D0111D196008E011F0400F02F10401196002D0B2F9003000E01368002B3CDA2D225B4284F8432037E021681A6811F0800FCF
:4039000002D0111D196007E011F0400F02F10401196001D0138800E01368227E5C496F2A14BF0A2208221BE078225A4984F845202268186812F0800F00F104051D6003D199
:40394000550601D5038800E00368D00744BF42F0200222601BB9226822F0200222601022002084F8430001E049490A226568002DA56008DB206820F0040020602BB9002DBD
:403980007DD175460CE0002B79D07546B3FBF2F002FB1033CB5C05F8013D03460028F5D1082A0BD12368DA0708D5236962689A42DEBF302305F8013C05F1FF35C5EB0E03DC
:4039C00023612EE008681A6810F0800F496903D0101D1860136808E010F0400F02F104001860136801D0198000E0196000232361754616E01A68111D196015680021626842
:403A0000284600F049F808B1401B6060636804E004F1420584F8422001232361002384F84330CDF800803B4603AA21463046FFF797FE013002D14FF0FF3026E023692A4641
:403A400039463046C0470130F5D023689B0710D5002504F1190907E001234A4639463046C0470130E7D00135E368039A9B1A9D42F2DBE068039B9842B8BF184605E00B780B
:403A800004F1420584F842308AE705B0BDE8F0839B400000AC40000010B5C9B202449042034605D01C7801308C42F8D1184610BD002010BD884210B501EB020301D8421E34
:403AC0000BE09842FBD28118D21AD34204D013F8014D01F8014DF8E710BD994204D011F8014B02F8014FF8E710BD000038B50546002944D051F8043C0C1F002BB8BFE418B9
:403B000000F0D4F81E4A1368114613B96360146030E0A3420DD92268A018834201BF18685B681218226063600C6023E0A24203D813465A68002AF9D118681918A1420BD18B
:403B40002168014458188242196013D110685268014419605A600DE002D90C232B6009E021686018824201BF106852680918216062605C602846BDE8384000F098B838BD3A
:403B8000A881FF1F70B5CD1C25F0030508350C2D38BF0C25002D064601DBA94202D90C23336046E000F082F8234B1C681A462146A1B10B685B1B0ED40B2B03D90B60CC1851
:403BC000CD501EE08C420BBF63684B681360636018BF0C4615E00C464968E9E7174C23681BB9304600F052F820602946304600F04DF8431C18D0C41C24F00304A0420DD15F
:403C00002560304600F053F804F10B00231D20F00700C31A0ED05A42E25070BD211A304600F034F80130EBD10C233360304600F03EF8002070BD00BFA881FF1FA481FF1F93
:403C4000F8B5074615460E4621B91146BDE8F840FFF798BF1AB9FFF749FF2846F8BD00F027F885420ED929463846FFF78BFF044650B131462A46FFF7DFFB31463846FFF7F5
:403C800035FF01E03046F8BD2046F8BD38B5064C0023054608462360FCF7A4FC431C02D1236803B12B6038BD3482FF1F7047704751F8040C0028BEBF091851F8043CC018E5
:403CC00004387047000000004C454654000000005468656F3A202564206D560052494748540000005C5100405C5100405C5100405C5100405C5100405C5100405C51004057
:403D0000035B0040DB5A0040835A0040402001020408100101100000305100402000605100401000C05100401000F0510040100000000140001000140140000800400140BF
:403D4000000A004C014000020050014020000000050505050505050040200102040810002E5000402D50004028500040295000402A5000402B5000402C50004006520040A2
:403D80000E520040165200401E520040265200402E520040365200407E52004001020000000000002B293031292622003F3F1F00010505002A002D002100000054007C00A2
:403DC00042000000000012000900000002000100050101000019000080878F979FA6AEB5BCC2C9CFD5DBE0E5E9EDF1F4F6F9FAFCFCFCFCFCFAF9F6F4F1EDE9E5E0DBD5CF6B
:403E0000C9C2BCB5AEA69F978F87807870686059514A433D36302A241F1A16120E0B09060503030303030506090B0E12161A1F242A30363D434A51596068707880909FAE2E
:403E4000BCC9D6E0EAF1F7FBFDFDFBF7F1EAE0D6C9BCAE9F908070615244372A20160F0905030305090F16202A37445261700000000000000000000010101010101010101F
:403E800018181818181818181C1C1C1C1C1C1C1C1E1E1E1E1E1E1E1E1F1F1F1F1F1F1F1F00000000000000000000000000000000FB21F93FFB2109407CD91240FB211940A5
:403EC0007A6A1F407CD92240BBFD2540FB2129403A462C407A6A2F405C4731407CD932409C6B3440BBFD3540DB8F3740FB2139401BB43A403A463C405AD83D407A6A3F4097
:403F00004C7E40405C4741406C1042407CD942408CA243409C6B4440AC344540BBFD4540CBC64640DB8F4740EB584840FB21494083F9A200444E6E00FC291500D157270041
:403F4000DD34F50062DBC0003C999500419043006351FE00BBDEAB00B761C5003A6E2400D24D42004906E00009EA2E001C92D100EB1DFE0029B11C00E83EA700F53582007C
:403F800044BB2E009CE98400B4267000417E5F00D6913900538339009CF439008B5F840028F9BD00F81F3B00DEFF97000F980500112FEF000A5A8B006D1F6D00CF7E360093
:403FC00009CB2700464FB7009E663F002DEA5F00BA277500E5EBC7003D7BF100F739070092528A00FB6BEA001FB15F00085D8D00300356007BFC4600F0AB6B0020BCCF001E
:4040000036F49A00E3A91D005E619100081BE60085996500A0145F008D40680080D8FF0027734D0006063100CA561500C9A873007BE260006B8CC0000200000003000000E2
:40404000040000000600000000000040FB21F93F000000002D44743E000000809846F83C0000006051CC783B00000080831BF0390000004020257A38000000802282E33602
:40408000000000001DF369354300232D302B2000686C4C0065666745464700303132333435363738394142434445460030313233343536373839616263646566000000001C
:4040C000F8B500BFF8BC08BC9E4670474D00000061060000F8B500BFF8BC08BC9E46704729000000F8400000C880FF1FA8000000C80000000000000000000000E8030000EC
:40410000E8031800E8030000050000003882FF1F7F00000002020303030303FFFF0000007F800000030000000000E02EC05D00001800000000366E0100000000000000003A
:404140000000000000000000000000000000000000000000000000008840000000000000000000000000000000000000000000000000000000000000000000000000000077
:404180000000000000000000000000000000000000000000000000000881FF1F00000000000000000000000000000000000000000000000000000000000000000000000058
:4041C00000000000000000000000000000000000000000000000000000000000000000000000000000000000000000000000000000000000000000000000000000000000BF
:40420000000000000000000000000000000000000000000000000000000000000000000000000000000000000000000000000000000000000000000000000000000000007E
:40424000000000000000000000000000000000000000000000000000000000000000000000000000000000000000000000000000000000000000000000000000000000003E
:4042800000000000000000000000000000000000000000000000000000000000000000000000000000000000000000000000000000000000000000000000000000000000FE
:020000040003F7
:0200000480007A
:4000000001520040015A00400864004001030140010701402E08014029090140490A01402C0B01404D0C01402A0D01400115014001190140011B0140044001400441014036
:400040000142014004430140024401400245014002460140034701400548014004490140034C0140024D014003500140025101402E7F970108FF0CFF0DFF1CFF1DFF2CFF28
:400080002DFF891FE208EE01050129013101370139824063450446204705481949FF4AFF4BFF4C024D204F05511059045A045F01604061406280648066808B028F01940239
:4000C0009503960199029B019C019E02A403A802AD01AF02B503B603D602D804D904DB04DE08DF0108040A111008122019401A01223024402580278029402F083210330406
:4001000039503F0847044F28571873407804915092109440962197409B049C409D409F80A008A580AB40C205C406CA28CC06CE4CD040D220DE0207040802097A0B040D086E
:400140000E01117613081402153E174018011B041C021F01214C23322510270229202B022D7E2E023001317832023306350136014004410349FF4AFF4BFF4C024D0C4EF823
:400180005217580459045A045B045F01624863A168F06AF06CF06EF0810183029F01AB02B103BF01C005C103C70AC9FFCAFFCBFFCC03CD0CCEF4D904DA04DF01E248E3A1B6
:4001C000E8F0EAF0ECF0EEF0005009200A21114018101A522120220A2310274029422A282F0831803216378039043B503F0140104240430447044E015708680869547301A4
:40020000920895049621974099029A289C40A60AC003C207C401CA2FCC1FCE8ED043D210081C0A02121D1418160128052A1030103403360C3E51404241014660470248182A
:4002400058045A045F01610C62F0630C650C670C6840694C6A406B4C6C906D586F0C852986018C0392029601976098039B039C03A37BA552A803A978AB04AC01AD7BAE0285
:40028000B002B160B318B401B507BF15C042C103C506C702C811D608D804D904DA04DB0FDF01E10CE2F0E30CE50CE70CE840E94CEA40EB4CEC90ED58EF0C010403020520BE
:4002C00008010A290B400E400F20120A160819221A481B021DA22054280229222B1030283A08405445A2482050085628571058406002780184028608C045C23FC443CA0FFC
:40030000CC06CE02D0B7D608D808DE01E402EC20B040EC2031203F40CC10CE2085209740A520E21097409740A308AB08EE803B20CE08871097203020CC080002A420C00891
:40034000208023409740A308C8407B08A308B040DE40A420B001EA01B020EC0400010C010E010003100200000000000000000100000B0B0000000000007F7F00000000004D
:4003800000007F000000800000000000000000000000000000000000000000000000000000000000000000000000000000000000000000000000000000000000000000003E
:4003C00000000000000000000000000000000000000000000000000000000000000000000000000000000000000000000000000000000000000000000000000000000000FD
:4004000000000000000000000000000000000000000000000000000000000000000000000000000000000000000000000000000000000000000000000000000000000000BC
:40044000000000000000000000000000000000000000000000000000000000000000000000000000000000000000000000000000000000000000000000000000000000007C
:40048000000000000000000000000000000000000000000000000000000000000000000000000000000000000000000000000000000000000000000000000000000000003C
:0200000490006A
:0400000000004005B7
:0200000490105A
:04000000BC90ACAF55
:0200000490303A
:02000000215E7F
:0200000490402A
:4000000000000000000000000000000000000000000000000000000000000000000000000000000000000000000000000000000000000000000000000000000000000000C0
:400040000000000000000000000000000000000000000000000000000000000000000000000000000000000000000000000000000000000000000000000000000000000080
:400080000000000000000000000000000000000000000000000000000000000000000000000000000000000000000000000000000000000000000000000000000000000040
:4000C0000000000000000000000000000000000000000000000000000000000000000000000000000000000000000000000000000000000000000000000000000000000000
:0200000490501A
:0C00000000012E12306900012E2C51C7A7
:00000001FF